{
  "contractName": "MD5SmartContract",
  "abi": [
    {
      "inputs": [],
      "payable": false,
      "stateMutability": "nonpayable",
      "type": "constructor"
    },
    {
      "anonymous": false,
      "inputs": [
        {
          "indexed": false,
          "internalType": "bytes32",
          "name": "signature",
          "type": "bytes32"
        }
      ],
      "name": "signEvent",
      "type": "event"
    },
    {
      "constant": true,
      "inputs": [],
      "name": "signature",
      "outputs": [
        {
          "internalType": "bytes32",
          "name": "",
          "type": "bytes32"
        }
      ],
      "payable": false,
      "stateMutability": "view",
      "type": "function"
    },
    {
      "constant": false,
      "inputs": [
        {
          "internalType": "string",
          "name": "document",
          "type": "string"
        }
      ],
      "name": "sign",
      "outputs": [],
      "payable": false,
      "stateMutability": "nonpayable",
      "type": "function"
    }
  ],
  "bytecode": "0x608060405234801561001057600080fd5b5061022f806100206000396000f3fe608060405234801561001057600080fd5b50600436106100365760003560e01c806351ff48471461003b57806379d6348d14610059575b600080fd5b610043610114565b6040518082815260200191505060405180910390f35b6101126004803603602081101561006f57600080fd5b810190808035906020019064010000000081111561008c57600080fd5b82018360208201111561009e57600080fd5b803590602001918460018302840111640100000000831117156100c057600080fd5b91908080601f016020809104026020016040519081016040528093929190818152602001838380828437600081840152601f19601f82011690508083019250505050505050919291929050505061011a565b005b60005481565b6002816040518082805190602001908083835b60208310610150578051825260208201915060208101905060208303925061012d565b6001836020036101000a038019825116818451168082178552505050505050905001915050602060405180830381855afa158015610192573d6000803e3d6000fd5b5050506040513d60208110156101a757600080fd5b81019080805190602001909291905050506000819055507facbf54c45310551f30611466b27938991b0c8e68b476ca487ebb7f3ecadf6dab6000546040518082815260200191505060405180910390a15056fea265627a7a723158207a085d2839ae9a886c793373981743f29fd6254bc26472c1580d55da9ebae7e964736f6c63430005100032",
  "source": "// SPDX-License-Identifier: MIT\npragma solidity >=0.4.22 <0.8.0;\n\ncontract MD5SmartContract {\n  bytes32 public signature;\n  event signEvent(bytes32 signature);\n  constructor() public {\n  }\n  function sign(string memory document) public {\n    signature = sha256(bytes(document));\n    emit signEvent(signature);\n  }\n}\n",
  "sourcePath": "/Users/morgan/Code/crypto/smartContracts/contracts/MD5SmartContract.sol",
  "compiler": {
    "name": "solc",
    "version": "0.5.16+commit.9c3226ce.Emscripten.clang"
  },
  "schemaVersion": "3.2.5",
  "updatedAt": "2020-10-07T23:50:39.575Z",
  "networkType": "ethereum",
  "devdoc": {
    "methods": {}
  },
  "userdoc": {
    "methods": {}
  }
}